{
  "_format": "hh-sol-artifact-1",
  "contractName": "NFTFactory",
  "sourceName": "contracts/NFTFactory.sol",
  "abi": [
    {
      "inputs": [
        {
          "internalType": "address",
          "name": "_owner",
          "type": "address"
        },
        {
          "internalType": "uint256",
          "name": "_badgeDefinitionId",
          "type": "uint256"
        }
      ],
      "name": "doesOwnBadgeFromGivenDefinition",
      "outputs": [
        {
          "internalType": "bool",
          "name": "_evaluationResult",
          "type": "bool"
        }
      ],
      "stateMutability": "view",
      "type": "function"
    }
  ],
  "bytecode": "0x608060405234801561001057600080fd5b506101a4806100206000396000f3fe608060405234801561001057600080fd5b506004361061002b5760003560e01c8063e7f4993714610030575b600080fd5b61004a60048036038101906100459190610092565b610060565b60405161005791906100dd565b60405180910390f35b600092915050565b60008135905061007781610140565b92915050565b60008135905061008c81610157565b92915050565b600080604083850312156100a557600080fd5b60006100b385828601610068565b92505060206100c48582860161007d565b9150509250929050565b6100d78161010a565b82525050565b60006020820190506100f260008301846100ce565b92915050565b600061010382610116565b9050919050565b60008115159050919050565b600073ffffffffffffffffffffffffffffffffffffffff82169050919050565b6000819050919050565b610149816100f8565b811461015457600080fd5b50565b61016081610136565b811461016b57600080fd5b5056fea2646970667358221220d064634979314e2126c63fcf058575012ffa8cf1d0667cb37c7b8569ed701b8a64736f6c63430008030033",
  "linkReferences": {},
  "deployedLinkReferences": {}
}