{
  "_format": "hh-sol-artifact-1",
  "contractName": "Ballot",
  "sourceName": "contracts/Ballot.sol",
  "abi": [
    {
      "inputs": [
        {
          "internalType": "address",
          "name": "_nftFactoryAddress",
          "type": "address"
        },
        {
          "internalType": "bytes32",
          "name": "proposalPitchName",
          "type": "bytes32"
        },
        {
          "internalType": "bytes32[]",
          "name": "proposalNames",
          "type": "bytes32[]"
        }
      ],
      "stateMutability": "nonpayable",
      "type": "constructor"
    },
    {
      "anonymous": false,
      "inputs": [
        {
          "indexed": false,
          "internalType": "address",
          "name": "_from",
          "type": "address"
        },
        {
          "indexed": false,
          "internalType": "address",
          "name": "_to",
          "type": "address"
        },
        {
          "indexed": false,
          "internalType": "uint256",
          "name": "_weight",
          "type": "uint256"
        }
      ],
      "name": "hasDelegated",
      "type": "event"
    },
    {
      "anonymous": false,
      "inputs": [
        {
          "indexed": false,
          "internalType": "address",
          "name": "_from",
          "type": "address"
        },
        {
          "indexed": false,
          "internalType": "uint256",
          "name": "_proposal",
          "type": "uint256"
        },
        {
          "indexed": false,
          "internalType": "uint256",
          "name": "_weight",
          "type": "uint256"
        }
      ],
      "name": "hasVoted",
      "type": "event"
    },
    {
      "inputs": [],
      "name": "chairperson",
      "outputs": [
        {
          "internalType": "address",
          "name": "",
          "type": "address"
        }
      ],
      "stateMutability": "view",
      "type": "function"
    },
    {
      "inputs": [
        {
          "internalType": "address",
          "name": "to",
          "type": "address"
        }
      ],
      "name": "delegate",
      "outputs": [],
      "stateMutability": "nonpayable",
      "type": "function"
    },
    {
      "inputs": [],
      "name": "getProposalCount",
      "outputs": [
        {
          "internalType": "uint256",
          "name": "_proposalCount",
          "type": "uint256"
        }
      ],
      "stateMutability": "view",
      "type": "function"
    },
    {
      "inputs": [
        {
          "internalType": "uint256",
          "name": "proposal",
          "type": "uint256"
        }
      ],
      "name": "getProposalName",
      "outputs": [
        {
          "internalType": "bytes32",
          "name": "_name",
          "type": "bytes32"
        }
      ],
      "stateMutability": "view",
      "type": "function"
    },
    {
      "inputs": [],
      "name": "getProposalPitch",
      "outputs": [
        {
          "internalType": "bytes32",
          "name": "_proposalPitch",
          "type": "bytes32"
        }
      ],
      "stateMutability": "view",
      "type": "function"
    },
    {
      "inputs": [
        {
          "internalType": "uint256",
          "name": "proposal",
          "type": "uint256"
        }
      ],
      "name": "getProposalVoteCount",
      "outputs": [
        {
          "internalType": "uint256",
          "name": "_voterCount",
          "type": "uint256"
        }
      ],
      "stateMutability": "view",
      "type": "function"
    },
    {
      "inputs": [
        {
          "internalType": "uint256",
          "name": "proposal",
          "type": "uint256"
        }
      ],
      "name": "getProposalVoterCount",
      "outputs": [
        {
          "internalType": "uint256",
          "name": "_voterCount",
          "type": "uint256"
        }
      ],
      "stateMutability": "view",
      "type": "function"
    },
    {
      "inputs": [
        {
          "internalType": "address",
          "name": "_voter",
          "type": "address"
        }
      ],
      "name": "getVotedProposal",
      "outputs": [
        {
          "internalType": "uint256",
          "name": "_proposal",
          "type": "uint256"
        }
      ],
      "stateMutability": "view",
      "type": "function"
    },
    {
      "inputs": [
        {
          "internalType": "address",
          "name": "_voter",
          "type": "address"
        }
      ],
      "name": "getVoterStatus",
      "outputs": [
        {
          "internalType": "bool",
          "name": "_voted",
          "type": "bool"
        }
      ],
      "stateMutability": "view",
      "type": "function"
    },
    {
      "inputs": [
        {
          "internalType": "address",
          "name": "_voter",
          "type": "address"
        }
      ],
      "name": "getVoterWeight",
      "outputs": [
        {
          "internalType": "uint256",
          "name": "_weight",
          "type": "uint256"
        }
      ],
      "stateMutability": "view",
      "type": "function"
    },
    {
      "inputs": [
        {
          "internalType": "uint256",
          "name": "proposal",
          "type": "uint256"
        }
      ],
      "name": "vote",
      "outputs": [],
      "stateMutability": "nonpayable",
      "type": "function"
    },
    {
      "inputs": [],
      "name": "winnerName",
      "outputs": [
        {
          "internalType": "bytes32",
          "name": "winnerName_",
          "type": "bytes32"
        }
      ],
      "stateMutability": "view",
      "type": "function"
    },
    {
      "inputs": [],
      "name": "winningProposal",
      "outputs": [
        {
          "internalType": "uint256",
          "name": "winningProposal_",
          "type": "uint256"
        }
      ],
      "stateMutability": "view",
      "type": "function"
    }
  ],
  "bytecode": "0x60806040523480156200001157600080fd5b5060405162001f1e38038062001f1e8339818101604052810190620000379190620004c1565b82600460006101000a81548173ffffffffffffffffffffffffffffffffffffffff021916908373ffffffffffffffffffffffffffffffffffffffff160217905550336000806101000a81548173ffffffffffffffffffffffffffffffffffffffff021916908373ffffffffffffffffffffffffffffffffffffffff160217905550620000e960008054906101000a900473ffffffffffffffffffffffffffffffffffffffff166200022d60201b60201c565b600160008060009054906101000a900473ffffffffffffffffffffffffffffffffffffffff1673ffffffffffffffffffffffffffffffffffffffff1673ffffffffffffffffffffffffffffffffffffffff168152602001908152602001600020600001819055508160028190555060005b8151811015620002235760036040518060600160405280848481518110620001ab577f4e487b7100000000000000000000000000000000000000000000000000000000600052603260045260246000fd5b602002602001015181526020016000815260200160008152509080600181540180825580915050600190039060005260206000209060030201600090919091909150600082015181600001556020820151816001015560408201518160020155505080806200021a9062000750565b9150506200015a565b505050506200085b565b600060011515600460009054906101000a900473ffffffffffffffffffffffffffffffffffffffff1673ffffffffffffffffffffffffffffffffffffffff1663e7f499378460006040518363ffffffff1660e01b8152600401620002939291906200058f565b60206040518083038186803b158015620002ac57600080fd5b505afa158015620002c1573d6000803e3d6000fd5b505050506040513d601f19601f82011682018060405250810190620002e7919062000530565b151514156200030257600581620002ff919062000641565b90505b60011515600460009054906101000a900473ffffffffffffffffffffffffffffffffffffffff1673ffffffffffffffffffffffffffffffffffffffff1663e7f499378460016040518363ffffffff1660e01b815260040162000366929190620005bc565b60206040518083038186803b1580156200037f57600080fd5b505afa15801562000394573d6000803e3d6000fd5b505050506040513d601f19601f82011682018060405250810190620003ba919062000530565b15151415620003d557600a81620003d2919062000641565b90505b919050565b6000620003f1620003eb8462000612565b620005e9565b905080838252602082019050828560208602820111156200041157600080fd5b60005b858110156200044557816200042a8882620004aa565b84526020840193506020830192505060018101905062000414565b5050509392505050565b60008151905062000460816200080d565b92915050565b600082601f8301126200047857600080fd5b81516200048a848260208601620003da565b91505092915050565b600081519050620004a48162000827565b92915050565b600081519050620004bb8162000841565b92915050565b600080600060608486031215620004d757600080fd5b6000620004e7868287016200044f565b9350506020620004fa86828701620004aa565b925050604084015167ffffffffffffffff8111156200051857600080fd5b620005268682870162000466565b9150509250925092565b6000602082840312156200054357600080fd5b6000620005538482850162000493565b91505092915050565b62000567816200069e565b82525050565b6200057881620006f2565b82525050565b620005898162000706565b82525050565b6000604082019050620005a660008301856200055c565b620005b560208301846200056d565b9392505050565b6000604082019050620005d360008301856200055c565b620005e260208301846200057e565b9392505050565b6000620005f562000608565b90506200060382826200071a565b919050565b6000604051905090565b600067ffffffffffffffff82111562000630576200062f620007cd565b5b602082029050602081019050919050565b60006200064e82620006e8565b91506200065b83620006e8565b9250827fffffffffffffffffffffffffffffffffffffffffffffffffffffffffffffffff038211156200069357620006926200079e565b5b828201905092915050565b6000620006ab82620006c8565b9050919050565b60008115159050919050565b6000819050919050565b600073ffffffffffffffffffffffffffffffffffffffff82169050919050565b6000819050919050565b6000620006ff82620006e8565b9050919050565b60006200071382620006e8565b9050919050565b6200072582620007fc565b810181811067ffffffffffffffff82111715620007475762000746620007cd565b5b80604052505050565b60006200075d82620006e8565b91507fffffffffffffffffffffffffffffffffffffffffffffffffffffffffffffffff8214156200079357620007926200079e565b5b600182019050919050565b7f4e487b7100000000000000000000000000000000000000000000000000000000600052601160045260246000fd5b7f4e487b7100000000000000000000000000000000000000000000000000000000600052604160045260246000fd5b6000601f19601f8301169050919050565b62000818816200069e565b81146200082457600080fd5b50565b6200083281620006b2565b81146200083e57600080fd5b50565b6200084c81620006be565b81146200085857600080fd5b50565b6116b3806200086b6000396000f3fe608060405234801561001057600080fd5b50600436106100cf5760003560e01c8063609ff1bd1161008c578063c08cc02d11610066578063c08cc02d14610226578063d85c91ae14610244578063e2ba53f014610274578063ebf51db314610292576100cf565b8063609ff1bd146101a85780636a7cc6d4146101c657806378e3ef20146101f6576100cf565b80630121b93f146100d45780630645b8db146100f05780632e4176cf14610120578063429b92bf1461013e57806352e092471461016e5780635c19a95c1461018c575b600080fd5b6100ee60048036038101906100e99190611118565b6102c2565b005b61010a60048036038101906101059190611118565b6104bb565b60405161011791906113fb565b60405180910390f35b610128610510565b604051610135919061124a565b60405180910390f35b61015860048036038101906101539190611118565b610534565b6040516101659190611340565b60405180910390f35b610176610589565b6040516101839190611340565b60405180910390f35b6101a660048036038101906101a191906110c6565b610593565b005b6101b0610a3a565b6040516101bd91906113fb565b60405180910390f35b6101e060048036038101906101db9190611118565b610b0e565b6040516101ed91906113fb565b60405180910390f35b610210600480360381019061020b91906110c6565b610b63565b60405161021d9190611325565b60405180910390f35b61022e610bbc565b60405161023b91906113fb565b60405180910390f35b61025e600480360381019061025991906110c6565b610bc9565b60405161026b91906113fb565b60405180910390f35b61027c610c47565b6040516102899190611340565b60405180910390f35b6102ac60048036038101906102a791906110c6565b610ca1565b6040516102b991906113fb565b60405180910390f35b6000600160003373ffffffffffffffffffffffffffffffffffffffff1673ffffffffffffffffffffffffffffffffffffffff168152602001908152602001600020905061030e33610eec565b8160000160008282546103219190611427565b925050819055508060010160009054906101000a900460ff161561037a576040517f08c379a00000000000000000000000000000000000000000000000000000000081526004016103719061135b565b60405180910390fd5b60018160010160006101000a81548160ff021916908315150217905550818160030181905550806002015460016103b19190611427565b600383815481106103eb577f4e487b7100000000000000000000000000000000000000000000000000000000600052603260045260246000fd5b9060005260206000209060030201600101600082825461040b9190611427565b92505081905550806000015460038381548110610451577f4e487b7100000000000000000000000000000000000000000000000000000000600052603260045260246000fd5b906000526020600020906003020160020160008282546104719190611427565b925050819055507f0ee294043f5e55c5cde2dd1a3a489e705fa1c1d470ba781a7aa64f8a8edf2343338383600001546040516104af939291906112ee565b60405180910390a15050565b6000600382815481106104f7577f4e487b7100000000000000000000000000000000000000000000000000000000600052603260045260246000fd5b9060005260206000209060030201600201549050919050565b60008054906101000a900473ffffffffffffffffffffffffffffffffffffffff1681565b600060038281548110610570577f4e487b7100000000000000000000000000000000000000000000000000000000600052603260045260246000fd5b9060005260206000209060030201600001549050919050565b6000600254905090565b6000600160003373ffffffffffffffffffffffffffffffffffffffff1673ffffffffffffffffffffffffffffffffffffffff16815260200190815260200160002090508060010160009054906101000a900460ff1615610628576040517f08c379a000000000000000000000000000000000000000000000000000000000815260040161061f9061139b565b60405180910390fd5b3373ffffffffffffffffffffffffffffffffffffffff168273ffffffffffffffffffffffffffffffffffffffff161415610697576040517f08c379a000000000000000000000000000000000000000000000000000000000815260040161068e906113db565b60405180910390fd5b5b600073ffffffffffffffffffffffffffffffffffffffff16600160008473ffffffffffffffffffffffffffffffffffffffff1673ffffffffffffffffffffffffffffffffffffffff16815260200190815260200160002060010160019054906101000a900473ffffffffffffffffffffffffffffffffffffffff1673ffffffffffffffffffffffffffffffffffffffff161461080757600160008373ffffffffffffffffffffffffffffffffffffffff1673ffffffffffffffffffffffffffffffffffffffff16815260200190815260200160002060010160019054906101000a900473ffffffffffffffffffffffffffffffffffffffff1691503373ffffffffffffffffffffffffffffffffffffffff168273ffffffffffffffffffffffffffffffffffffffff161415610802576040517f08c379a00000000000000000000000000000000000000000000000000000000081526004016107f9906113bb565b60405180910390fd5b610698565b6000600160008473ffffffffffffffffffffffffffffffffffffffff1673ffffffffffffffffffffffffffffffffffffffff168152602001908152602001600020905061085333610eec565b8260000160008282546108669190611427565b9250508190555060018260010160006101000a81548160ff021916908315150217905550828260010160016101000a81548173ffffffffffffffffffffffffffffffffffffffff021916908373ffffffffffffffffffffffffffffffffffffffff1602179055508060010160009054906101000a900460ff16156109ba5760016003826003015481548110610924577f4e487b7100000000000000000000000000000000000000000000000000000000600052603260045260246000fd5b906000526020600020906003020160010160008282546109449190611427565b925050819055508160000154600382600301548154811061098e577f4e487b7100000000000000000000000000000000000000000000000000000000600052603260045260246000fd5b906000526020600020906003020160020160008282546109ae9190611427565b925050819055506109f6565b81600001548160000160008282546109d29190611427565b9250508190555060018160020160008282546109ee9190611427565b925050819055505b7fbe28b9c61e58444dbfaee72d6c3083fd16f28cc3469eeb0775860cad9b313dbb33848460000154604051610a2d93929190611265565b60405180910390a1505050565b6000806000905060005b600380549050811015610b09578160038281548110610a8c577f4e487b7100000000000000000000000000000000000000000000000000000000600052603260045260246000fd5b9060005260206000209060030201600201541115610af65760038181548110610ade577f4e487b7100000000000000000000000000000000000000000000000000000000600052603260045260246000fd5b90600052602060002090600302016002015491508092505b8080610b01906114f3565b915050610a44565b505090565b600060038281548110610b4a577f4e487b7100000000000000000000000000000000000000000000000000000000600052603260045260246000fd5b9060005260206000209060030201600101549050919050565b6000600160008373ffffffffffffffffffffffffffffffffffffffff1673ffffffffffffffffffffffffffffffffffffffff16815260200190815260200160002060010160009054906101000a900460ff169050919050565b6000600380549050905090565b600080600160008473ffffffffffffffffffffffffffffffffffffffff1673ffffffffffffffffffffffffffffffffffffffff1681526020019081526020016000209050806000015491508060010160009054906101000a900460ff16610c4157610c3383610eec565b82610c3e9190611427565b91505b50919050565b60006003610c53610a3a565b81548110610c8a577f4e487b7100000000000000000000000000000000000000000000000000000000600052603260045260246000fd5b906000526020600020906003020160000154905090565b6000600160008373ffffffffffffffffffffffffffffffffffffffff1673ffffffffffffffffffffffffffffffffffffffff16815260200190815260200160002060010160009054906101000a900460ff16610d32576040517f08c379a0000000000000000000000000000000000000000000000000000000008152600401610d299061137b565b60405180910390fd5b5b600073ffffffffffffffffffffffffffffffffffffffff16600160008473ffffffffffffffffffffffffffffffffffffffff1673ffffffffffffffffffffffffffffffffffffffff16815260200190815260200160002060010160019054906101000a900473ffffffffffffffffffffffffffffffffffffffff1673ffffffffffffffffffffffffffffffffffffffff1614610ea257600160008373ffffffffffffffffffffffffffffffffffffffff1673ffffffffffffffffffffffffffffffffffffffff16815260200190815260200160002060010160019054906101000a900473ffffffffffffffffffffffffffffffffffffffff1691503373ffffffffffffffffffffffffffffffffffffffff168273ffffffffffffffffffffffffffffffffffffffff161415610e9d576040517f08c379a0000000000000000000000000000000000000000000000000000000008152600401610e94906113bb565b60405180910390fd5b610d33565b600160008373ffffffffffffffffffffffffffffffffffffffff1673ffffffffffffffffffffffffffffffffffffffff168152602001908152602001600020600301549050919050565b600060011515600460009054906101000a900473ffffffffffffffffffffffffffffffffffffffff1673ffffffffffffffffffffffffffffffffffffffff1663e7f499378460006040518363ffffffff1660e01b8152600401610f5092919061129c565b60206040518083038186803b158015610f6857600080fd5b505afa158015610f7c573d6000803e3d6000fd5b505050506040513d601f19601f82011682018060405250810190610fa091906110ef565b15151415610fb857600581610fb59190611427565b90505b60011515600460009054906101000a900473ffffffffffffffffffffffffffffffffffffffff1673ffffffffffffffffffffffffffffffffffffffff1663e7f499378460016040518363ffffffff1660e01b815260040161101a9291906112c5565b60206040518083038186803b15801561103257600080fd5b505afa158015611046573d6000803e3d6000fd5b505050506040513d601f19601f8201168201806040525081019061106a91906110ef565b1515141561108257600a8161107f9190611427565b90505b919050565b60008135905061109681611638565b92915050565b6000815190506110ab8161164f565b92915050565b6000813590506110c081611666565b92915050565b6000602082840312156110d857600080fd5b60006110e684828501611087565b91505092915050565b60006020828403121561110157600080fd5b600061110f8482850161109c565b91505092915050565b60006020828403121561112a57600080fd5b6000611138848285016110b1565b91505092915050565b61114a8161147d565b82525050565b6111598161148f565b82525050565b6111688161149b565b82525050565b611177816114cf565b82525050565b611186816114e1565b82525050565b6000611199600e83611416565b91506111a48261156b565b602082019050919050565b60006111bc600e83611416565b91506111c782611594565b602082019050919050565b60006111df601283611416565b91506111ea826115bd565b602082019050919050565b6000611202601983611416565b915061120d826115e6565b602082019050919050565b6000611225601e83611416565b91506112308261160f565b602082019050919050565b611244816114c5565b82525050565b600060208201905061125f6000830184611141565b92915050565b600060608201905061127a6000830186611141565b6112876020830185611141565b611294604083018461123b565b949350505050565b60006040820190506112b16000830185611141565b6112be602083018461116e565b9392505050565b60006040820190506112da6000830185611141565b6112e7602083018461117d565b9392505050565b60006060820190506113036000830186611141565b611310602083018561123b565b61131d604083018461123b565b949350505050565b600060208201905061133a6000830184611150565b92915050565b6000602082019050611355600083018461115f565b92915050565b600060208201905081810360008301526113748161118c565b9050919050565b60006020820190508181036000830152611394816111af565b9050919050565b600060208201905081810360008301526113b4816111d2565b9050919050565b600060208201905081810360008301526113d4816111f5565b9050919050565b600060208201905081810360008301526113f481611218565b9050919050565b6000602082019050611410600083018461123b565b92915050565b600082825260208201905092915050565b6000611432826114c5565b915061143d836114c5565b9250827fffffffffffffffffffffffffffffffffffffffffffffffffffffffffffffffff038211156114725761147161153c565b5b828201905092915050565b6000611488826114a5565b9050919050565b60008115159050919050565b6000819050919050565b600073ffffffffffffffffffffffffffffffffffffffff82169050919050565b6000819050919050565b60006114da826114c5565b9050919050565b60006114ec826114c5565b9050919050565b60006114fe826114c5565b91507fffffffffffffffffffffffffffffffffffffffffffffffffffffffffffffffff8214156115315761153061153c565b5b600182019050919050565b7f4e487b7100000000000000000000000000000000000000000000000000000000600052601160045260246000fd5b7f416c726561647920766f7465642e000000000000000000000000000000000000600082015250565b7f596f75206e6f7420766f7465642e000000000000000000000000000000000000600082015250565b7f596f7520616c726561647920766f7465642e0000000000000000000000000000600082015250565b7f466f756e64206c6f6f7020696e2064656c65676174696f6e2e00000000000000600082015250565b7f53656c662d64656c65676174696f6e20697320646973616c6c6f7765642e0000600082015250565b6116418161147d565b811461164c57600080fd5b50565b6116588161148f565b811461166357600080fd5b50565b61166f816114c5565b811461167a57600080fd5b5056fea2646970667358221220ff46c4d44f6db58560b74da5e8e2dcae089d2415867593fdfc58f0473e76098c64736f6c63430008030033",
  "linkReferences": {},
  "deployedLinkReferences": {}
}